{
  "_format": "hh-sol-artifact-1",
  "contractName": "CampaignFactory",
  "sourceName": "contracts/CampaignFactory.sol",
  "abi": [
    {
      "inputs": [
        {
          "internalType": "uint256",
          "name": "goal",
          "type": "uint256"
        },
        {
          "internalType": "string",
          "name": "title",
          "type": "string"
        }
      ],
      "name": "createCampaign",
      "outputs": [],
      "stateMutability": "nonpayable",
      "type": "function"
    },
    {
      "inputs": [
        {
          "internalType": "uint256",
          "name": "",
          "type": "uint256"
        }
      ],
      "name": "deployedCampaigns",
      "outputs": [
        {
          "internalType": "address",
          "name": "",
          "type": "address"
        }
      ],
      "stateMutability": "view",
      "type": "function"
    },
    {
      "inputs": [],
      "name": "getCampaigns",
      "outputs": [
        {
          "internalType": "address[]",
          "name": "",
          "type": "address[]"
        }
      ],
      "stateMutability": "view",
      "type": "function"
    }
  ],
  "bytecode": "0x6080604052348015600f57600080fd5b5061237d8061001f6000396000f3fe608060405234801561001057600080fd5b50600436106100415760003560e01c8063339d50a5146100465780634220d65614610076578063a6b0363314610092575b600080fd5b610060600480360381019061005b9190610278565b6100b0565b60405161006d91906102e6565b60405180910390f35b610090600480360381019061008b9190610447565b6100ef565b005b61009a610193565b6040516100a79190610561565b60405180910390f35b600081815481106100c057600080fd5b906000526020600020016000915054906101000a900473ffffffffffffffffffffffffffffffffffffffff1681565b600033838360405161010090610221565b61010c93929190610611565b604051809103906000f080158015610128573d6000803e3d6000fd5b5090506000819080600181540180825580915050600190039060005260206000200160009091909190916101000a81548173ffffffffffffffffffffffffffffffffffffffff021916908373ffffffffffffffffffffffffffffffffffffffff160217905550505050565b6060600080548060200260200160405190810160405280929190818152602001828054801561021757602002820191906000526020600020905b8160009054906101000a900473ffffffffffffffffffffffffffffffffffffffff1673ffffffffffffffffffffffffffffffffffffffff16815260200190600101908083116101cd575b5050505050905090565b611cf88061065083390190565b6000604051905090565b600080fd5b600080fd5b6000819050919050565b61025581610242565b811461026057600080fd5b50565b6000813590506102728161024c565b92915050565b60006020828403121561028e5761028d610238565b5b600061029c84828501610263565b91505092915050565b600073ffffffffffffffffffffffffffffffffffffffff82169050919050565b60006102d0826102a5565b9050919050565b6102e0816102c5565b82525050565b60006020820190506102fb60008301846102d7565b92915050565b600080fd5b600080fd5b6000601f19601f8301169050919050565b7f4e487b7100000000000000000000000000000000000000000000000000000000600052604160045260246000fd5b6103548261030b565b810181811067ffffffffffffffff821117156103735761037261031c565b5b80604052505050565b600061038661022e565b9050610392828261034b565b919050565b600067ffffffffffffffff8211156103b2576103b161031c565b5b6103bb8261030b565b9050602081019050919050565b82818337600083830152505050565b60006103ea6103e584610397565b61037c565b90508281526020810184848401111561040657610405610306565b5b6104118482856103c8565b509392505050565b600082601f83011261042e5761042d610301565b5b813561043e8482602086016103d7565b91505092915050565b6000806040838503121561045e5761045d610238565b5b600061046c85828601610263565b925050602083013567ffffffffffffffff81111561048d5761048c61023d565b5b61049985828601610419565b9150509250929050565b600081519050919050565b600082825260208201905092915050565b6000819050602082019050919050565b6104d8816102c5565b82525050565b60006104ea83836104cf565b60208301905092915050565b6000602082019050919050565b600061050e826104a3565b61051881856104ae565b9350610523836104bf565b8060005b8381101561055457815161053b88826104de565b9750610546836104f6565b925050600181019050610527565b5085935050505092915050565b6000602082019050818103600083015261057b8184610503565b905092915050565b61058c81610242565b82525050565b600081519050919050565b600082825260208201905092915050565b60005b838110156105cc5780820151818401526020810190506105b1565b60008484015250505050565b60006105e382610592565b6105ed818561059d565b93506105fd8185602086016105ae565b6106068161030b565b840191505092915050565b600060608201905061062660008301866102d7565b6106336020830185610583565b818103604083015261064581846105d8565b905094935050505056fe608060405234801561001057600080fd5b50604051611cf8380380611cf88339818101604052810190610032919061029a565b826000806101000a81548173ffffffffffffffffffffffffffffffffffffffff021916908373ffffffffffffffffffffffffffffffffffffffff1602179055508160028190555080600190816100889190610520565b505050506105f2565b6000604051905090565b600080fd5b600080fd5b600073ffffffffffffffffffffffffffffffffffffffff82169050919050565b60006100d0826100a5565b9050919050565b6100e0816100c5565b81146100eb57600080fd5b50565b6000815190506100fd816100d7565b92915050565b6000819050919050565b61011681610103565b811461012157600080fd5b50565b6000815190506101338161010d565b92915050565b600080fd5b600080fd5b6000601f19601f8301169050919050565b7f4e487b7100000000000000000000000000000000000000000000000000000000600052604160045260246000fd5b61018c82610143565b810181811067ffffffffffffffff821117156101ab576101aa610154565b5b80604052505050565b60006101be610091565b90506101ca8282610183565b919050565b600067ffffffffffffffff8211156101ea576101e9610154565b5b6101f382610143565b9050602081019050919050565b60005b8381101561021e578082015181840152602081019050610203565b60008484015250505050565b600061023d610238846101cf565b6101b4565b9050828152602081018484840111156102595761025861013e565b5b610264848285610200565b509392505050565b600082601f83011261028157610280610139565b5b815161029184826020860161022a565b91505092915050565b6000806000606084860312156102b3576102b261009b565b5b60006102c1868287016100ee565b93505060206102d286828701610124565b925050604084015167ffffffffffffffff8111156102f3576102f26100a0565b5b6102ff8682870161026c565b9150509250925092565b600081519050919050565b7f4e487b7100000000000000000000000000000000000000000000000000000000600052602260045260246000fd5b6000600282049050600182168061035b57607f821691505b60208210810361036e5761036d610314565b5b50919050565b60008190508160005260206000209050919050565b60006020601f8301049050919050565b600082821b905092915050565b6000600883026103d67fffffffffffffffffffffffffffffffffffffffffffffffffffffffffffffffff82610399565b6103e08683610399565b95508019841693508086168417925050509392505050565b6000819050919050565b600061041d61041861041384610103565b6103f8565b610103565b9050919050565b6000819050919050565b61043783610402565b61044b61044382610424565b8484546103a6565b825550505050565b600090565b610460610453565b61046b81848461042e565b505050565b5b8181101561048f57610484600082610458565b600181019050610471565b5050565b601f8211156104d4576104a581610374565b6104ae84610389565b810160208510156104bd578190505b6104d16104c985610389565b830182610470565b50505b505050565b600082821c905092915050565b60006104f7600019846008026104d9565b1980831691505092915050565b600061051083836104e6565b9150826002028217905092915050565b61052982610309565b67ffffffffffffffff81111561054257610541610154565b5b61054c8254610343565b610557828285610493565b600060209050601f83116001811461058a5760008415610578578287015190505b6105828582610504565b8655506105ea565b601f19841661059886610374565b60005b828110156105c05784890151825560018201915060208501945060208101905061059b565b868310156105dd57848901516105d9601f8916826104e6565b8355505b6001600288020188555050505b505050505050565b6116f7806106016000396000f3fe6080604052600436106100c25760003560e01c8063590e1ae31161007f578063b473f19911610059578063b473f1991461025d578063c5c4744c14610286578063d7bb99ba146102b1578063e89e4ed6146102bb576100c2565b8063590e1ae3146101f25780637a3a0e84146102095780637a6f451814610234576100c2565b806302d05d3f146100c75780630681ca55146100f25780633cb5d1001461011d5780634051ddac1461015a57806342e94c901461018a5780634a79d50c146101c7575b600080fd5b3480156100d357600080fd5b506100dc6102fb565b6040516100e99190610c5b565b60405180910390f35b3480156100fe57600080fd5b5061010761031f565b6040516101149190610c8f565b60405180910390f35b34801561012957600080fd5b50610144600480360381019061013f9190610ce0565b610325565b6040516101519190610c5b565b60405180910390f35b34801561016657600080fd5b5061016f610364565b60405161018196959493929190610d9d565b60405180910390f35b34801561019657600080fd5b506101b160048036038101906101ac9190610e31565b610440565b6040516101be9190610c8f565b60405180910390f35b3480156101d357600080fd5b506101dc610458565b6040516101e99190610e5e565b60405180910390f35b3480156101fe57600080fd5b506102076104e6565b005b34801561021557600080fd5b5061021e610681565b60405161022b9190610c8f565b60405180910390f35b34801561024057600080fd5b5061025b60048036038101906102569190610ce0565b610687565b005b34801561026957600080fd5b50610284600480360381019061027f9190610ee5565b6108cd565b005b34801561029257600080fd5b5061029b6109f0565b6040516102a89190610c8f565b60405180910390f35b6102b96109f6565b005b3480156102c757600080fd5b506102e260048036038101906102dd9190610ce0565b610b55565b6040516102f29493929190610f60565b60405180910390f35b60008054906101000a900473ffffffffffffffffffffffffffffffffffffffff1681565b60045481565b6006818154811061033557600080fd5b906000526020600020016000915054906101000a900473ffffffffffffffffffffffffffffffffffffffff1681565b6000606060008060008060008054906101000a900473ffffffffffffffffffffffffffffffffffffffff1660016002546003546004546006805490508480546103ac90610fdb565b80601f01602080910402602001604051908101604052809291908181526020018280546103d890610fdb565b80156104255780601f106103fa57610100808354040283529160200191610425565b820191906000526020600020905b81548152906001019060200180831161040857829003601f168201915b50505050509450955095509550955095509550909192939495565b60076020528060005260406000206000915090505481565b6001805461046590610fdb565b80601f016020809104026020016040519081016040528092919081815260200182805461049190610fdb565b80156104de5780601f106104b3576101008083540402835291602001916104de565b820191906000526020600020905b8154815290600101906020018083116104c157829003601f168201915b505050505081565b6000600760003373ffffffffffffffffffffffffffffffffffffffff1673ffffffffffffffffffffffffffffffffffffffff1681526020019081526020016000205411610568576040517f08c379a000000000000000000000000000000000000000000000000000000000815260040161055f90611058565b60405180910390fd5b600254600354106105ae576040517f08c379a00000000000000000000000000000000000000000000000000000000081526004016105a5906110c4565b60405180910390fd5b6000600760003373ffffffffffffffffffffffffffffffffffffffff1673ffffffffffffffffffffffffffffffffffffffff1681526020019081526020016000205490506000600760003373ffffffffffffffffffffffffffffffffffffffff1673ffffffffffffffffffffffffffffffffffffffff168152602001908152602001600020819055503373ffffffffffffffffffffffffffffffffffffffff166108fc829081150290604051600060405180830381858888f1935050505015801561067d573d6000803e3d6000fd5b5050565b60025481565b60006005600083815260200190815260200160002090506000600760003373ffffffffffffffffffffffffffffffffffffffff1673ffffffffffffffffffffffffffffffffffffffff1681526020019081526020016000205411610720576040517f08c379a000000000000000000000000000000000000000000000000000000000815260040161071790611130565b60405180910390fd5b8060040160003373ffffffffffffffffffffffffffffffffffffffff1673ffffffffffffffffffffffffffffffffffffffff16815260200190815260200160002060009054906101000a900460ff16156107af576040517f08c379a00000000000000000000000000000000000000000000000000000000081526004016107a69061119c565b60405180910390fd5b60018160040160003373ffffffffffffffffffffffffffffffffffffffff1673ffffffffffffffffffffffffffffffffffffffff16815260200190815260200160002060006101000a81548160ff02191690831515021790555080600301600081548092919061081e906111eb565b919050555060026006805490506108359190611262565b816003015411156108c95760018160020160006101000a81548160ff02191690831515021790555060008054906101000a900473ffffffffffffffffffffffffffffffffffffffff1673ffffffffffffffffffffffffffffffffffffffff166108fc82600101549081150290604051600060405180830381858888f193505050501580156108c7573d6000803e3d6000fd5b505b5050565b60008054906101000a900473ffffffffffffffffffffffffffffffffffffffff1673ffffffffffffffffffffffffffffffffffffffff163373ffffffffffffffffffffffffffffffffffffffff161461095b576040517f08c379a0000000000000000000000000000000000000000000000000000000008152600401610952906112df565b60405180910390fd5b6003548111156109a0576040517f08c379a00000000000000000000000000000000000000000000000000000000081526004016109979061134b565b60405180910390fd5b600060056000600460008154809291906109b9906111eb565b919050558152602001908152602001600020905083838260000191826109e0929190611551565b5081816001018190555050505050565b60035481565b60003411610a39576040517f08c379a0000000000000000000000000000000000000000000000000000000008152600401610a309061166d565b60405180910390fd5b6000600760003373ffffffffffffffffffffffffffffffffffffffff1673ffffffffffffffffffffffffffffffffffffffff1681526020019081526020016000205403610ae4576006339080600181540180825580915050600190039060005260206000200160009091909190916101000a81548173ffffffffffffffffffffffffffffffffffffffff021916908373ffffffffffffffffffffffffffffffffffffffff1602179055505b34600760003373ffffffffffffffffffffffffffffffffffffffff1673ffffffffffffffffffffffffffffffffffffffff1681526020019081526020016000206000828254610b33919061168d565b925050819055503460036000828254610b4c919061168d565b92505081905550565b6005602052806000526040600020600091509050806000018054610b7890610fdb565b80601f0160208091040260200160405190810160405280929190818152602001828054610ba490610fdb565b8015610bf15780601f10610bc657610100808354040283529160200191610bf1565b820191906000526020600020905b815481529060010190602001808311610bd457829003601f168201915b5050505050908060010154908060020160009054906101000a900460ff16908060030154905084565b600073ffffffffffffffffffffffffffffffffffffffff82169050919050565b6000610c4582610c1a565b9050919050565b610c5581610c3a565b82525050565b6000602082019050610c706000830184610c4c565b92915050565b6000819050919050565b610c8981610c76565b82525050565b6000602082019050610ca46000830184610c80565b92915050565b600080fd5b600080fd5b610cbd81610c76565b8114610cc857600080fd5b50565b600081359050610cda81610cb4565b92915050565b600060208284031215610cf657610cf5610caa565b5b6000610d0484828501610ccb565b91505092915050565b600081519050919050565b600082825260208201905092915050565b60005b83811015610d47578082015181840152602081019050610d2c565b60008484015250505050565b6000601f19601f8301169050919050565b6000610d6f82610d0d565b610d798185610d18565b9350610d89818560208601610d29565b610d9281610d53565b840191505092915050565b600060c082019050610db26000830189610c4c565b8181036020830152610dc48188610d64565b9050610dd36040830187610c80565b610de06060830186610c80565b610ded6080830185610c80565b610dfa60a0830184610c80565b979650505050505050565b610e0e81610c3a565b8114610e1957600080fd5b50565b600081359050610e2b81610e05565b92915050565b600060208284031215610e4757610e46610caa565b5b6000610e5584828501610e1c565b91505092915050565b60006020820190508181036000830152610e788184610d64565b905092915050565b600080fd5b600080fd5b600080fd5b60008083601f840112610ea557610ea4610e80565b5b8235905067ffffffffffffffff811115610ec257610ec1610e85565b5b602083019150836001820283011115610ede57610edd610e8a565b5b9250929050565b600080600060408486031215610efe57610efd610caa565b5b600084013567ffffffffffffffff811115610f1c57610f1b610caf565b5b610f2886828701610e8f565b93509350506020610f3b86828701610ccb565b9150509250925092565b60008115159050919050565b610f5a81610f45565b82525050565b60006080820190508181036000830152610f7a8187610d64565b9050610f896020830186610c80565b610f966040830185610f51565b610fa36060830184610c80565b95945050505050565b7f4e487b7100000000000000000000000000000000000000000000000000000000600052602260045260246000fd5b60006002820490506001821680610ff357607f821691505b60208210810361100657611005610fac565b5b50919050565b7f4e6f7468696e6720746f20726566756e64000000000000000000000000000000600082015250565b6000611042601183610d18565b915061104d8261100c565b602082019050919050565b6000602082019050818103600083015261107181611035565b9050919050565b7f476f616c206d6574000000000000000000000000000000000000000000000000600082015250565b60006110ae600883610d18565b91506110b982611078565b602082019050919050565b600060208201905081810360008301526110dd816110a1565b9050919050565b7f4e6f74206120636f6e7472696275746f72000000000000000000000000000000600082015250565b600061111a601183610d18565b9150611125826110e4565b602082019050919050565b600060208201905081810360008301526111498161110d565b9050919050565b7f416c726561647920766f74656400000000000000000000000000000000000000600082015250565b6000611186600d83610d18565b915061119182611150565b602082019050919050565b600060208201905081810360008301526111b581611179565b9050919050565b7f4e487b7100000000000000000000000000000000000000000000000000000000600052601160045260246000fd5b60006111f682610c76565b91507fffffffffffffffffffffffffffffffffffffffffffffffffffffffffffffffff8203611228576112276111bc565b5b600182019050919050565b7f4e487b7100000000000000000000000000000000000000000000000000000000600052601260045260246000fd5b600061126d82610c76565b915061127883610c76565b92508261128857611287611233565b5b828204905092915050565b7f4f6e6c792063726561746f722063616e2063616c6c0000000000000000000000600082015250565b60006112c9601583610d18565b91506112d482611293565b602082019050919050565b600060208201905081810360008301526112f8816112bc565b9050919050565b7f496e73756666696369656e742066756e64730000000000000000000000000000600082015250565b6000611335601283610d18565b9150611340826112ff565b602082019050919050565b6000602082019050818103600083015261136481611328565b9050919050565b600082905092915050565b7f4e487b7100000000000000000000000000000000000000000000000000000000600052604160045260246000fd5b60008190508160005260206000209050919050565b60006020601f8301049050919050565b600082821b905092915050565b6000600883026114077fffffffffffffffffffffffffffffffffffffffffffffffffffffffffffffffff826113ca565b61141186836113ca565b95508019841693508086168417925050509392505050565b6000819050919050565b600061144e61144961144484610c76565b611429565b610c76565b9050919050565b6000819050919050565b61146883611433565b61147c61147482611455565b8484546113d7565b825550505050565b600090565b611491611484565b61149c81848461145f565b505050565b5b818110156114c0576114b5600082611489565b6001810190506114a2565b5050565b601f821115611505576114d6816113a5565b6114df846113ba565b810160208510156114ee578190505b6115026114fa856113ba565b8301826114a1565b50505b505050565b600082821c905092915050565b60006115286000198460080261150a565b1980831691505092915050565b60006115418383611517565b9150826002028217905092915050565b61155b838361136b565b67ffffffffffffffff81111561157457611573611376565b5b61157e8254610fdb565b6115898282856114c4565b6000601f8311600181146115b857600084156115a6578287013590505b6115b08582611535565b865550611618565b601f1984166115c6866113a5565b60005b828110156115ee578489013582556001820191506020850194506020810190506115c9565b8683101561160b5784890135611607601f891682611517565b8355505b6001600288020188555050505b50505050505050565b7f4d7573742073656e6420455448203e2030000000000000000000000000000000600082015250565b6000611657601183610d18565b915061166282611621565b602082019050919050565b600060208201905081810360008301526116868161164a565b9050919050565b600061169882610c76565b91506116a383610c76565b92508282019050808211156116bb576116ba6111bc565b5b9291505056fea26469706673582212203c58e223e1b27f844edf8a4a42b10803b26fe7a0a12be5c9c023e8004a216afc64736f6c634300081c0033a2646970667358221220a8222c80d8f03d727fb2d8638c4673bb3a047e4939efa4d5a13d49688c5f270764736f6c634300081c0033",
  "linkReferences": {},
  "deployedLinkReferences": {}
}