{
  "_format": "hh-sol-artifact-1",
  "contractName": "Campaign",
  "sourceName": "contracts/Campaign.sol",
  "abi": [
    {
      "inputs": [
        {
          "internalType": "address",
          "name": "_creator",
          "type": "address"
        },
        {
          "internalType": "uint256",
          "name": "_goal",
          "type": "uint256"
        },
        {
          "internalType": "string",
          "name": "_title",
          "type": "string"
        },
        {
          "internalType": "string[]",
          "name": "_descriptions",
          "type": "string[]"
        },
        {
          "internalType": "uint256[]",
          "name": "_percentages",
          "type": "uint256[]"
        }
      ],
      "stateMutability": "nonpayable",
      "type": "constructor"
    },
    {
      "inputs": [
        {
          "internalType": "uint256",
          "name": "id",
          "type": "uint256"
        }
      ],
      "name": "activateMilestoneVoting",
      "outputs": [],
      "stateMutability": "nonpayable",
      "type": "function"
    },
    {
      "inputs": [],
      "name": "amountSent",
      "outputs": [
        {
          "internalType": "uint256",
          "name": "",
          "type": "uint256"
        }
      ],
      "stateMutability": "view",
      "type": "function"
    },
    {
      "inputs": [],
      "name": "contribute",
      "outputs": [],
      "stateMutability": "payable",
      "type": "function"
    },
    {
      "inputs": [
        {
          "internalType": "address",
          "name": "",
          "type": "address"
        }
      ],
      "name": "contributions",
      "outputs": [
        {
          "internalType": "uint256",
          "name": "",
          "type": "uint256"
        }
      ],
      "stateMutability": "view",
      "type": "function"
    },
    {
      "inputs": [
        {
          "internalType": "uint256",
          "name": "",
          "type": "uint256"
        }
      ],
      "name": "contributors",
      "outputs": [
        {
          "internalType": "address",
          "name": "",
          "type": "address"
        }
      ],
      "stateMutability": "view",
      "type": "function"
    },
    {
      "inputs": [],
      "name": "creator",
      "outputs": [
        {
          "internalType": "address",
          "name": "",
          "type": "address"
        }
      ],
      "stateMutability": "view",
      "type": "function"
    },
    {
      "inputs": [],
      "name": "fundingGoal",
      "outputs": [
        {
          "internalType": "uint256",
          "name": "",
          "type": "uint256"
        }
      ],
      "stateMutability": "view",
      "type": "function"
    },
    {
      "inputs": [],
      "name": "getSummary",
      "outputs": [
        {
          "internalType": "address",
          "name": "",
          "type": "address"
        },
        {
          "internalType": "string",
          "name": "",
          "type": "string"
        },
        {
          "internalType": "uint256",
          "name": "",
          "type": "uint256"
        },
        {
          "internalType": "uint256",
          "name": "",
          "type": "uint256"
        },
        {
          "internalType": "uint256",
          "name": "",
          "type": "uint256"
        },
        {
          "internalType": "uint256",
          "name": "",
          "type": "uint256"
        },
        {
          "internalType": "uint256",
          "name": "",
          "type": "uint256"
        },
        {
          "internalType": "uint256",
          "name": "",
          "type": "uint256"
        },
        {
          "internalType": "uint256",
          "name": "",
          "type": "uint256"
        }
      ],
      "stateMutability": "view",
      "type": "function"
    },
    {
      "inputs": [],
      "name": "milestoneCount",
      "outputs": [
        {
          "internalType": "uint256",
          "name": "",
          "type": "uint256"
        }
      ],
      "stateMutability": "view",
      "type": "function"
    },
    {
      "inputs": [
        {
          "internalType": "uint256",
          "name": "",
          "type": "uint256"
        }
      ],
      "name": "milestones",
      "outputs": [
        {
          "internalType": "string",
          "name": "description",
          "type": "string"
        },
        {
          "internalType": "uint256",
          "name": "percentage",
          "type": "uint256"
        },
        {
          "internalType": "bool",
          "name": "approved",
          "type": "bool"
        },
        {
          "internalType": "uint256",
          "name": "approvalCount",
          "type": "uint256"
        },
        {
          "internalType": "bool",
          "name": "votingActive",
          "type": "bool"
        }
      ],
      "stateMutability": "view",
      "type": "function"
    },
    {
      "inputs": [],
      "name": "percentageAwarded",
      "outputs": [
        {
          "internalType": "uint256",
          "name": "",
          "type": "uint256"
        }
      ],
      "stateMutability": "view",
      "type": "function"
    },
    {
      "inputs": [],
      "name": "refund",
      "outputs": [],
      "stateMutability": "nonpayable",
      "type": "function"
    },
    {
      "inputs": [],
      "name": "title",
      "outputs": [
        {
          "internalType": "string",
          "name": "",
          "type": "string"
        }
      ],
      "stateMutability": "view",
      "type": "function"
    },
    {
      "inputs": [],
      "name": "totalPotentialEarnings",
      "outputs": [
        {
          "internalType": "uint256",
          "name": "",
          "type": "uint256"
        }
      ],
      "stateMutability": "view",
      "type": "function"
    },
    {
      "inputs": [
        {
          "internalType": "uint256",
          "name": "id",
          "type": "uint256"
        }
      ],
      "name": "voteOnMilestone",
      "outputs": [],
      "stateMutability": "nonpayable",
      "type": "function"
    }
  ],
  "bytecode": "0x608060405234801561001057600080fd5b506040516125ac3803806125ac833981810160405281019061003291906105be565b8151815114610076576040517f08c379a000000000000000000000000000000000000000000000000000000000815260040161006d906106ea565b60405180910390fd5b6000856000806101000a81548173ffffffffffffffffffffffffffffffffffffffff021916908373ffffffffffffffffffffffffffffffffffffffff1602179055508460028190555083600190816100ce9190610921565b5060005b83518110156101bd576000600760008381526020019081526020016000209050848281518110610105576101046109f3565b5b602002602001015181600001908161011d9190610921565b50838281518110610131576101306109f3565b5b6020026020010151816001018190555060008160020160006101000a81548160ff0219169083151502179055506000816003018190555060008160050160006101000a81548160ff0219169083151502179055508060010154836101959190610a51565b9250600460008154809291906101aa90610a85565b91905055505080806001019150506100d2565b5060648114610201576040517f08c379a00000000000000000000000000000000000000000000000000000000081526004016101f890610b19565b60405180910390fd5b505050505050610b39565b6000604051905090565b600080fd5b600080fd5b600073ffffffffffffffffffffffffffffffffffffffff82169050919050565b600061024b82610220565b9050919050565b61025b81610240565b811461026657600080fd5b50565b60008151905061027881610252565b92915050565b6000819050919050565b6102918161027e565b811461029c57600080fd5b50565b6000815190506102ae81610288565b92915050565b600080fd5b600080fd5b6000601f19601f8301169050919050565b7f4e487b7100000000000000000000000000000000000000000000000000000000600052604160045260246000fd5b610307826102be565b810181811067ffffffffffffffff82111715610326576103256102cf565b5b80604052505050565b600061033961020c565b905061034582826102fe565b919050565b600067ffffffffffffffff821115610365576103646102cf565b5b61036e826102be565b9050602081019050919050565b60005b8381101561039957808201518184015260208101905061037e565b60008484015250505050565b60006103b86103b38461034a565b61032f565b9050828152602081018484840111156103d4576103d36102b9565b5b6103df84828561037b565b509392505050565b600082601f8301126103fc576103fb6102b4565b5b815161040c8482602086016103a5565b91505092915050565b600067ffffffffffffffff8211156104305761042f6102cf565b5b602082029050602081019050919050565b600080fd5b600061045961045484610415565b61032f565b9050808382526020820190506020840283018581111561047c5761047b610441565b5b835b818110156104c357805167ffffffffffffffff8111156104a1576104a06102b4565b5b8086016104ae89826103e7565b8552602085019450505060208101905061047e565b5050509392505050565b600082601f8301126104e2576104e16102b4565b5b81516104f2848260208601610446565b91505092915050565b600067ffffffffffffffff821115610516576105156102cf565b5b602082029050602081019050919050565b600061053a610535846104fb565b61032f565b9050808382526020820190506020840283018581111561055d5761055c610441565b5b835b818110156105865780610572888261029f565b84526020840193505060208101905061055f565b5050509392505050565b600082601f8301126105a5576105a46102b4565b5b81516105b5848260208601610527565b91505092915050565b600080600080600060a086880312156105da576105d9610216565b5b60006105e888828901610269565b95505060206105f98882890161029f565b945050604086015167ffffffffffffffff81111561061a5761061961021b565b5b610626888289016103e7565b935050606086015167ffffffffffffffff8111156106475761064661021b565b5b610653888289016104cd565b925050608086015167ffffffffffffffff8111156106745761067361021b565b5b61068088828901610590565b9150509295509295909350565b600082825260208201905092915050565b7f4d69736d617463686564206c656e677468730000000000000000000000000000600082015250565b60006106d460128361068d565b91506106df8261069e565b602082019050919050565b60006020820190508181036000830152610703816106c7565b9050919050565b600081519050919050565b7f4e487b7100000000000000000000000000000000000000000000000000000000600052602260045260246000fd5b6000600282049050600182168061075c57607f821691505b60208210810361076f5761076e610715565b5b50919050565b60008190508160005260206000209050919050565b60006020601f8301049050919050565b600082821b905092915050565b6000600883026107d77fffffffffffffffffffffffffffffffffffffffffffffffffffffffffffffffff8261079a565b6107e1868361079a565b95508019841693508086168417925050509392505050565b6000819050919050565b600061081e6108196108148461027e565b6107f9565b61027e565b9050919050565b6000819050919050565b61083883610803565b61084c61084482610825565b8484546107a7565b825550505050565b600090565b610861610854565b61086c81848461082f565b505050565b5b8181101561089057610885600082610859565b600181019050610872565b5050565b601f8211156108d5576108a681610775565b6108af8461078a565b810160208510156108be578190505b6108d26108ca8561078a565b830182610871565b50505b505050565b600082821c905092915050565b60006108f8600019846008026108da565b1980831691505092915050565b600061091183836108e7565b9150826002028217905092915050565b61092a8261070a565b67ffffffffffffffff811115610943576109426102cf565b5b61094d8254610744565b610958828285610894565b600060209050601f83116001811461098b5760008415610979578287015190505b6109838582610905565b8655506109eb565b601f19841661099986610775565b60005b828110156109c15784890151825560018201915060208501945060208101905061099c565b868310156109de57848901516109da601f8916826108e7565b8355505b6001600288020188555050505b505050505050565b7f4e487b7100000000000000000000000000000000000000000000000000000000600052603260045260246000fd5b7f4e487b7100000000000000000000000000000000000000000000000000000000600052601160045260246000fd5b6000610a5c8261027e565b9150610a678361027e565b9250828201905080821115610a7f57610a7e610a22565b5b92915050565b6000610a908261027e565b91507fffffffffffffffffffffffffffffffffffffffffffffffffffffffffffffffff8203610ac257610ac1610a22565b5b600182019050919050565b7f546f74616c2070657263656e74616765206d7573742062652031303000000000600082015250565b6000610b03601c8361068d565b9150610b0e82610acd565b602082019050919050565b60006020820190508181036000830152610b3281610af6565b9050919050565b611a6480610b486000396000f3fe6080604052600436106100e85760003560e01c8063590e1ae31161008a5780639a24d515116100595780639a24d515146102da578063d7bb99ba14610305578063e820d5fb1461030f578063e89e4ed61461033a576100e8565b8063590e1ae3146102465780637a3a0e841461025d5780637a6f45181461028857806387ba44e3146102b1576100e8565b80634051ddac116100c65780634051ddac1461018057806342e94c90146101b35780634a79d50c146101f057806350d38cf71461021b576100e8565b806302d05d3f146100ed5780630681ca55146101185780633cb5d10014610143575b600080fd5b3480156100f957600080fd5b5061010261037b565b60405161010f9190611162565b60405180910390f35b34801561012457600080fd5b5061012d61039f565b60405161013a9190611196565b60405180910390f35b34801561014f57600080fd5b5061016a600480360381019061016591906111e2565b6103a5565b6040516101779190611162565b60405180910390f35b34801561018c57600080fd5b506101956103e4565b6040516101aa9998979695949392919061129f565b60405180910390f35b3480156101bf57600080fd5b506101da60048036038101906101d5919061135f565b6104d6565b6040516101e79190611196565b60405180910390f35b3480156101fc57600080fd5b506102056104ee565b604051610212919061138c565b60405180910390f35b34801561022757600080fd5b5061023061057c565b60405161023d9190611196565b60405180910390f35b34801561025257600080fd5b5061025b610582565b005b34801561026957600080fd5b506102726108da565b60405161027f9190611196565b60405180910390f35b34801561029457600080fd5b506102af60048036038101906102aa91906111e2565b6108e0565b005b3480156102bd57600080fd5b506102d860048036038101906102d391906111e2565b610cc9565b005b3480156102e657600080fd5b506102ef610e33565b6040516102fc9190611196565b60405180910390f35b61030d610e39565b005b34801561031b57600080fd5b50610324611043565b6040516103319190611196565b60405180910390f35b34801561034657600080fd5b50610361600480360381019061035c91906111e2565b611049565b6040516103729594939291906113c9565b60405180910390f35b60008054906101000a900473ffffffffffffffffffffffffffffffffffffffff1681565b60045481565b600881815481106103b557600080fd5b906000526020600020016000915054906101000a900473ffffffffffffffffffffffffffffffffffffffff1681565b6000606060008060008060008060008060009054906101000a900473ffffffffffffffffffffffffffffffffffffffff1660016002546003546004546008805490506005544760065487805461043990611452565b80601f016020809104026020016040519081016040528092919081815260200182805461046590611452565b80156104b25780601f10610487576101008083540402835291602001916104b2565b820191906000526020600020905b81548152906001019060200180831161049557829003601f168201915b50505050509750985098509850985098509850985098509850909192939495969798565b60096020528060005260406000206000915090505481565b600180546104fb90611452565b80601f016020809104026020016040519081016040528092919081815260200182805461052790611452565b80156105745780601f1061054957610100808354040283529160200191610574565b820191906000526020600020905b81548152906001019060200180831161055757829003601f168201915b505050505081565b60065481565b6000600960003373ffffffffffffffffffffffffffffffffffffffff1673ffffffffffffffffffffffffffffffffffffffff1681526020019081526020016000205411610604576040517f08c379a00000000000000000000000000000000000000000000000000000000081526004016105fb906114cf565b60405180910390fd5b60006064600554600960003373ffffffffffffffffffffffffffffffffffffffff1673ffffffffffffffffffffffffffffffffffffffff16815260200190815260200160002054610655919061151e565b61065f919061158f565b600960003373ffffffffffffffffffffffffffffffffffffffff1673ffffffffffffffffffffffffffffffffffffffff168152602001908152602001600020546106a991906115c0565b90506000600960003373ffffffffffffffffffffffffffffffffffffffff1673ffffffffffffffffffffffffffffffffffffffff16815260200190815260200160002081905550806003600082825461070291906115c0565b9250508190555060005b60088054905081101561088f573373ffffffffffffffffffffffffffffffffffffffff1660088281548110610744576107436115f4565b5b9060005260206000200160009054906101000a900473ffffffffffffffffffffffffffffffffffffffff1673ffffffffffffffffffffffffffffffffffffffff1603610882576008600160088054905061079e91906115c0565b815481106107af576107ae6115f4565b5b9060005260206000200160009054906101000a900473ffffffffffffffffffffffffffffffffffffffff16600882815481106107ee576107ed6115f4565b5b9060005260206000200160006101000a81548173ffffffffffffffffffffffffffffffffffffffff021916908373ffffffffffffffffffffffffffffffffffffffff160217905550600880548061084857610847611623565b5b6001900381819060005260206000200160006101000a81549073ffffffffffffffffffffffffffffffffffffffff0219169055905561088f565b808060010191505061070c565b503373ffffffffffffffffffffffffffffffffffffffff166108fc829081150290604051600060405180830381858888f193505050501580156108d6573d6000803e3d6000fd5b5050565b60025481565b60006007600083815260200190815260200160002090508060050160009054906101000a900460ff16610948576040517f08c379a000000000000000000000000000000000000000000000000000000000815260040161093f9061169e565b60405180910390fd5b60008054906101000a900473ffffffffffffffffffffffffffffffffffffffff1673ffffffffffffffffffffffffffffffffffffffff163373ffffffffffffffffffffffffffffffffffffffff16036109d6576040517f08c379a00000000000000000000000000000000000000000000000000000000081526004016109cd9061170a565b60405180910390fd5b6000600960003373ffffffffffffffffffffffffffffffffffffffff1673ffffffffffffffffffffffffffffffffffffffff1681526020019081526020016000205411610a58576040517f08c379a0000000000000000000000000000000000000000000000000000000008152600401610a4f90611776565b60405180910390fd5b8060040160003373ffffffffffffffffffffffffffffffffffffffff1673ffffffffffffffffffffffffffffffffffffffff16815260200190815260200160002060009054906101000a900460ff1615610ae7576040517f08c379a0000000000000000000000000000000000000000000000000000000008152600401610ade906117e2565b60405180910390fd5b8060020160009054906101000a900460ff1615610b39576040517f08c379a0000000000000000000000000000000000000000000000000000000008152600401610b309061184e565b60405180910390fd5b60018160040160003373ffffffffffffffffffffffffffffffffffffffff1673ffffffffffffffffffffffffffffffffffffffff16815260200190815260200160002060006101000a81548160ff021916908315150217905550806003016000815480929190610ba89061186e565b91905055506002600880549050610bbf919061158f565b81600301541115610cc557600060648260010154600354610be0919061151e565b610bea919061158f565b905060018260020160006101000a81548160ff02191690831515021790555060008054906101000a900473ffffffffffffffffffffffffffffffffffffffff1673ffffffffffffffffffffffffffffffffffffffff166108fc829081150290604051600060405180830381858888f19350505050158015610c6f573d6000803e3d6000fd5b508060066000828254610c8291906118b6565b92505081905550816001015460056000828254610c9f91906118b6565b9250508190555060008260050160006101000a81548160ff021916908315150217905550505b5050565b60008054906101000a900473ffffffffffffffffffffffffffffffffffffffff1673ffffffffffffffffffffffffffffffffffffffff163373ffffffffffffffffffffffffffffffffffffffff1614610d57576040517f08c379a0000000000000000000000000000000000000000000000000000000008152600401610d4e90611936565b60405180910390fd5b60006007600083815260200190815260200160002090508060050160009054906101000a900460ff1615610dc0576040517f08c379a0000000000000000000000000000000000000000000000000000000008152600401610db7906119a2565b60405180910390fd5b8060020160009054906101000a900460ff1615610e12576040517f08c379a0000000000000000000000000000000000000000000000000000000008152600401610e099061184e565b60405180910390fd5b60018160050160006101000a81548160ff0219169083151502179055505050565b60035481565b60003411610e7c576040517f08c379a0000000000000000000000000000000000000000000000000000000008152600401610e7390611a0e565b60405180910390fd5b6000600960003373ffffffffffffffffffffffffffffffffffffffff1673ffffffffffffffffffffffffffffffffffffffff1681526020019081526020016000205403610f27576008339080600181540180825580915050600190039060005260206000200160009091909190916101000a81548173ffffffffffffffffffffffffffffffffffffffff021916908373ffffffffffffffffffffffffffffffffffffffff1602179055505b34600960003373ffffffffffffffffffffffffffffffffffffffff1673ffffffffffffffffffffffffffffffffffffffff1681526020019081526020016000206000828254610f7691906118b6565b925050819055503460036000828254610f8f91906118b6565b9250508190555060006005541115611041576000606460055434610fb3919061151e565b610fbd919061158f565b905060008054906101000a900473ffffffffffffffffffffffffffffffffffffffff1673ffffffffffffffffffffffffffffffffffffffff166108fc829081150290604051600060405180830381858888f19350505050158015611025573d6000803e3d6000fd5b50806006600082825461103891906118b6565b92505081905550505b565b60055481565b600760205280600052604060002060009150905080600001805461106c90611452565b80601f016020809104026020016040519081016040528092919081815260200182805461109890611452565b80156110e55780601f106110ba576101008083540402835291602001916110e5565b820191906000526020600020905b8154815290600101906020018083116110c857829003601f168201915b5050505050908060010154908060020160009054906101000a900460ff16908060030154908060050160009054906101000a900460ff16905085565b600073ffffffffffffffffffffffffffffffffffffffff82169050919050565b600061114c82611121565b9050919050565b61115c81611141565b82525050565b60006020820190506111776000830184611153565b92915050565b6000819050919050565b6111908161117d565b82525050565b60006020820190506111ab6000830184611187565b92915050565b600080fd5b6111bf8161117d565b81146111ca57600080fd5b50565b6000813590506111dc816111b6565b92915050565b6000602082840312156111f8576111f76111b1565b5b6000611206848285016111cd565b91505092915050565b600081519050919050565b600082825260208201905092915050565b60005b8381101561124957808201518184015260208101905061122e565b60008484015250505050565b6000601f19601f8301169050919050565b60006112718261120f565b61127b818561121a565b935061128b81856020860161122b565b61129481611255565b840191505092915050565b6000610120820190506112b5600083018c611153565b81810360208301526112c7818b611266565b90506112d6604083018a611187565b6112e36060830189611187565b6112f06080830188611187565b6112fd60a0830187611187565b61130a60c0830186611187565b61131760e0830185611187565b611325610100830184611187565b9a9950505050505050505050565b61133c81611141565b811461134757600080fd5b50565b60008135905061135981611333565b92915050565b600060208284031215611375576113746111b1565b5b60006113838482850161134a565b91505092915050565b600060208201905081810360008301526113a68184611266565b905092915050565b60008115159050919050565b6113c3816113ae565b82525050565b600060a08201905081810360008301526113e38188611266565b90506113f26020830187611187565b6113ff60408301866113ba565b61140c6060830185611187565b61141960808301846113ba565b9695505050505050565b7f4e487b7100000000000000000000000000000000000000000000000000000000600052602260045260246000fd5b6000600282049050600182168061146a57607f821691505b60208210810361147d5761147c611423565b5b50919050565b7f4e6f7468696e6720746f20726566756e64000000000000000000000000000000600082015250565b60006114b960118361121a565b91506114c482611483565b602082019050919050565b600060208201905081810360008301526114e8816114ac565b9050919050565b7f4e487b7100000000000000000000000000000000000000000000000000000000600052601160045260246000fd5b60006115298261117d565b91506115348361117d565b92508282026115428161117d565b91508282048414831517611559576115586114ef565b5b5092915050565b7f4e487b7100000000000000000000000000000000000000000000000000000000600052601260045260246000fd5b600061159a8261117d565b91506115a58361117d565b9250826115b5576115b4611560565b5b828204905092915050565b60006115cb8261117d565b91506115d68361117d565b92508282039050818111156115ee576115ed6114ef565b5b92915050565b7f4e487b7100000000000000000000000000000000000000000000000000000000600052603260045260246000fd5b7f4e487b7100000000000000000000000000000000000000000000000000000000600052603160045260246000fd5b7f4d696c6573746f6e65206e6f7420766f7461626c652079657400000000000000600082015250565b600061168860198361121a565b915061169382611652565b602082019050919050565b600060208201905081810360008301526116b78161167b565b9050919050565b7f43726561746f722063616e6e6f7420766f746500000000000000000000000000600082015250565b60006116f460138361121a565b91506116ff826116be565b602082019050919050565b60006020820190508181036000830152611723816116e7565b9050919050565b7f4e6f74206120636f6e7472696275746f72000000000000000000000000000000600082015250565b600061176060118361121a565b915061176b8261172a565b602082019050919050565b6000602082019050818103600083015261178f81611753565b9050919050565b7f416c726561647920766f74656400000000000000000000000000000000000000600082015250565b60006117cc600d8361121a565b91506117d782611796565b602082019050919050565b600060208201905081810360008301526117fb816117bf565b9050919050565b7f4d696c6573746f6e6520616c726561647920617070726f766564000000000000600082015250565b6000611838601a8361121a565b915061184382611802565b602082019050919050565b600060208201905081810360008301526118678161182b565b9050919050565b60006118798261117d565b91507fffffffffffffffffffffffffffffffffffffffffffffffffffffffffffffffff82036118ab576118aa6114ef565b5b600182019050919050565b60006118c18261117d565b91506118cc8361117d565b92508282019050808211156118e4576118e36114ef565b5b92915050565b7f4f6e6c792063726561746f722063616e2063616c6c0000000000000000000000600082015250565b600061192060158361121a565b915061192b826118ea565b602082019050919050565b6000602082019050818103600083015261194f81611913565b9050919050565b7f4d696c6573746f6e6520616c7265616479206163746976650000000000000000600082015250565b600061198c60188361121a565b915061199782611956565b602082019050919050565b600060208201905081810360008301526119bb8161197f565b9050919050565b7f4d7573742073656e6420455448203e2030000000000000000000000000000000600082015250565b60006119f860118361121a565b9150611a03826119c2565b602082019050919050565b60006020820190508181036000830152611a27816119eb565b905091905056fea264697066735822122012589d155f6f2d66be4c37b62bed7750a383ccfc11612de5ec3107b23877336c64736f6c634300081c0033",
  "linkReferences": {},
  "deployedLinkReferences": {}
}