{
  "_format": "hh-sol-artifact-1",
  "contractName": "Campaign",
  "sourceName": "contracts/Campaign.sol",
  "abi": [
    {
      "inputs": [
        {
          "internalType": "address",
          "name": "_creator",
          "type": "address"
        },
        {
          "internalType": "uint256",
          "name": "_goal",
          "type": "uint256"
        },
        {
          "internalType": "string",
          "name": "_title",
          "type": "string"
        },
        {
          "internalType": "string[]",
          "name": "_descriptions",
          "type": "string[]"
        },
        {
          "internalType": "uint256[]",
          "name": "_percentages",
          "type": "uint256[]"
        }
      ],
      "stateMutability": "nonpayable",
      "type": "constructor"
    },
    {
      "inputs": [
        {
          "internalType": "uint256",
          "name": "id",
          "type": "uint256"
        }
      ],
      "name": "activateMilestoneVoting",
      "outputs": [],
      "stateMutability": "nonpayable",
      "type": "function"
    },
    {
      "inputs": [],
      "name": "contribute",
      "outputs": [],
      "stateMutability": "payable",
      "type": "function"
    },
    {
      "inputs": [
        {
          "internalType": "address",
          "name": "",
          "type": "address"
        }
      ],
      "name": "contributions",
      "outputs": [
        {
          "internalType": "uint256",
          "name": "",
          "type": "uint256"
        }
      ],
      "stateMutability": "view",
      "type": "function"
    },
    {
      "inputs": [
        {
          "internalType": "uint256",
          "name": "",
          "type": "uint256"
        }
      ],
      "name": "contributors",
      "outputs": [
        {
          "internalType": "address",
          "name": "",
          "type": "address"
        }
      ],
      "stateMutability": "view",
      "type": "function"
    },
    {
      "inputs": [],
      "name": "creator",
      "outputs": [
        {
          "internalType": "address",
          "name": "",
          "type": "address"
        }
      ],
      "stateMutability": "view",
      "type": "function"
    },
    {
      "inputs": [],
      "name": "fundingGoal",
      "outputs": [
        {
          "internalType": "uint256",
          "name": "",
          "type": "uint256"
        }
      ],
      "stateMutability": "view",
      "type": "function"
    },
    {
      "inputs": [],
      "name": "getSummary",
      "outputs": [
        {
          "internalType": "address",
          "name": "",
          "type": "address"
        },
        {
          "internalType": "string",
          "name": "",
          "type": "string"
        },
        {
          "internalType": "uint256",
          "name": "",
          "type": "uint256"
        },
        {
          "internalType": "uint256",
          "name": "",
          "type": "uint256"
        },
        {
          "internalType": "uint256",
          "name": "",
          "type": "uint256"
        },
        {
          "internalType": "uint256",
          "name": "",
          "type": "uint256"
        },
        {
          "internalType": "uint256",
          "name": "",
          "type": "uint256"
        },
        {
          "internalType": "uint256",
          "name": "",
          "type": "uint256"
        }
      ],
      "stateMutability": "view",
      "type": "function"
    },
    {
      "inputs": [],
      "name": "milestoneCount",
      "outputs": [
        {
          "internalType": "uint256",
          "name": "",
          "type": "uint256"
        }
      ],
      "stateMutability": "view",
      "type": "function"
    },
    {
      "inputs": [
        {
          "internalType": "uint256",
          "name": "",
          "type": "uint256"
        }
      ],
      "name": "milestones",
      "outputs": [
        {
          "internalType": "string",
          "name": "description",
          "type": "string"
        },
        {
          "internalType": "uint256",
          "name": "percentage",
          "type": "uint256"
        },
        {
          "internalType": "bool",
          "name": "approved",
          "type": "bool"
        },
        {
          "internalType": "uint256",
          "name": "approvalCount",
          "type": "uint256"
        },
        {
          "internalType": "bool",
          "name": "votingActive",
          "type": "bool"
        }
      ],
      "stateMutability": "view",
      "type": "function"
    },
    {
      "inputs": [],
      "name": "percentageAwarded",
      "outputs": [
        {
          "internalType": "uint256",
          "name": "",
          "type": "uint256"
        }
      ],
      "stateMutability": "view",
      "type": "function"
    },
    {
      "inputs": [],
      "name": "refund",
      "outputs": [],
      "stateMutability": "nonpayable",
      "type": "function"
    },
    {
      "inputs": [],
      "name": "title",
      "outputs": [
        {
          "internalType": "string",
          "name": "",
          "type": "string"
        }
      ],
      "stateMutability": "view",
      "type": "function"
    },
    {
      "inputs": [],
      "name": "totalPotentialEarnings",
      "outputs": [
        {
          "internalType": "uint256",
          "name": "",
          "type": "uint256"
        }
      ],
      "stateMutability": "view",
      "type": "function"
    },
    {
      "inputs": [
        {
          "internalType": "uint256",
          "name": "id",
          "type": "uint256"
        }
      ],
      "name": "voteOnMilestone",
      "outputs": [],
      "stateMutability": "nonpayable",
      "type": "function"
    }
  ],
  "bytecode": "0x608060405234801561001057600080fd5b5060405161233a38038061233a833981810160405281019061003291906105be565b8151815114610076576040517f08c379a000000000000000000000000000000000000000000000000000000000815260040161006d906106ea565b60405180910390fd5b6000856000806101000a81548173ffffffffffffffffffffffffffffffffffffffff021916908373ffffffffffffffffffffffffffffffffffffffff1602179055508460028190555083600190816100ce9190610921565b5060005b83518110156101bd576000600660008381526020019081526020016000209050848281518110610105576101046109f3565b5b602002602001015181600001908161011d9190610921565b50838281518110610131576101306109f3565b5b6020026020010151816001018190555060008160020160006101000a81548160ff0219169083151502179055506000816003018190555060008160050160006101000a81548160ff0219169083151502179055508060010154836101959190610a51565b9250600460008154809291906101aa90610a85565b91905055505080806001019150506100d2565b5060648114610201576040517f08c379a00000000000000000000000000000000000000000000000000000000081526004016101f890610b19565b60405180910390fd5b505050505050610b39565b6000604051905090565b600080fd5b600080fd5b600073ffffffffffffffffffffffffffffffffffffffff82169050919050565b600061024b82610220565b9050919050565b61025b81610240565b811461026657600080fd5b50565b60008151905061027881610252565b92915050565b6000819050919050565b6102918161027e565b811461029c57600080fd5b50565b6000815190506102ae81610288565b92915050565b600080fd5b600080fd5b6000601f19601f8301169050919050565b7f4e487b7100000000000000000000000000000000000000000000000000000000600052604160045260246000fd5b610307826102be565b810181811067ffffffffffffffff82111715610326576103256102cf565b5b80604052505050565b600061033961020c565b905061034582826102fe565b919050565b600067ffffffffffffffff821115610365576103646102cf565b5b61036e826102be565b9050602081019050919050565b60005b8381101561039957808201518184015260208101905061037e565b60008484015250505050565b60006103b86103b38461034a565b61032f565b9050828152602081018484840111156103d4576103d36102b9565b5b6103df84828561037b565b509392505050565b600082601f8301126103fc576103fb6102b4565b5b815161040c8482602086016103a5565b91505092915050565b600067ffffffffffffffff8211156104305761042f6102cf565b5b602082029050602081019050919050565b600080fd5b600061045961045484610415565b61032f565b9050808382526020820190506020840283018581111561047c5761047b610441565b5b835b818110156104c357805167ffffffffffffffff8111156104a1576104a06102b4565b5b8086016104ae89826103e7565b8552602085019450505060208101905061047e565b5050509392505050565b600082601f8301126104e2576104e16102b4565b5b81516104f2848260208601610446565b91505092915050565b600067ffffffffffffffff821115610516576105156102cf565b5b602082029050602081019050919050565b600061053a610535846104fb565b61032f565b9050808382526020820190506020840283018581111561055d5761055c610441565b5b835b818110156105865780610572888261029f565b84526020840193505060208101905061055f565b5050509392505050565b600082601f8301126105a5576105a46102b4565b5b81516105b5848260208601610527565b91505092915050565b600080600080600060a086880312156105da576105d9610216565b5b60006105e888828901610269565b95505060206105f98882890161029f565b945050604086015167ffffffffffffffff81111561061a5761061961021b565b5b610626888289016103e7565b935050606086015167ffffffffffffffff8111156106475761064661021b565b5b610653888289016104cd565b925050608086015167ffffffffffffffff8111156106745761067361021b565b5b61068088828901610590565b9150509295509295909350565b600082825260208201905092915050565b7f4d69736d617463686564206c656e677468730000000000000000000000000000600082015250565b60006106d460128361068d565b91506106df8261069e565b602082019050919050565b60006020820190508181036000830152610703816106c7565b9050919050565b600081519050919050565b7f4e487b7100000000000000000000000000000000000000000000000000000000600052602260045260246000fd5b6000600282049050600182168061075c57607f821691505b60208210810361076f5761076e610715565b5b50919050565b60008190508160005260206000209050919050565b60006020601f8301049050919050565b600082821b905092915050565b6000600883026107d77fffffffffffffffffffffffffffffffffffffffffffffffffffffffffffffffff8261079a565b6107e1868361079a565b95508019841693508086168417925050509392505050565b6000819050919050565b600061081e6108196108148461027e565b6107f9565b61027e565b9050919050565b6000819050919050565b61083883610803565b61084c61084482610825565b8484546107a7565b825550505050565b600090565b610861610854565b61086c81848461082f565b505050565b5b8181101561089057610885600082610859565b600181019050610872565b5050565b601f8211156108d5576108a681610775565b6108af8461078a565b810160208510156108be578190505b6108d26108ca8561078a565b830182610871565b50505b505050565b600082821c905092915050565b60006108f8600019846008026108da565b1980831691505092915050565b600061091183836108e7565b9150826002028217905092915050565b61092a8261070a565b67ffffffffffffffff811115610943576109426102cf565b5b61094d8254610744565b610958828285610894565b600060209050601f83116001811461098b5760008415610979578287015190505b6109838582610905565b8655506109eb565b601f19841661099986610775565b60005b828110156109c15784890151825560018201915060208501945060208101905061099c565b868310156109de57848901516109da601f8916826108e7565b8355505b6001600288020188555050505b505050505050565b7f4e487b7100000000000000000000000000000000000000000000000000000000600052603260045260246000fd5b7f4e487b7100000000000000000000000000000000000000000000000000000000600052601160045260246000fd5b6000610a5c8261027e565b9150610a678361027e565b9250828201905080821115610a7f57610a7e610a22565b5b92915050565b6000610a908261027e565b91507fffffffffffffffffffffffffffffffffffffffffffffffffffffffffffffffff8203610ac257610ac1610a22565b5b600182019050919050565b7f546f74616c2070657263656e74616765206d7573742062652031303000000000600082015250565b6000610b03601c8361068d565b9150610b0e82610acd565b602082019050919050565b60006020820190508181036000830152610b3281610af6565b9050919050565b6117f280610b486000396000f3fe6080604052600436106100dd5760003560e01c80637a3a0e841161007f5780639a24d515116100595780639a24d515146102a3578063d7bb99ba146102ce578063e820d5fb146102d8578063e89e4ed614610303576100dd565b80637a3a0e84146102265780637a6f45181461025157806387ba44e31461027a576100dd565b80634051ddac116100bb5780634051ddac1461017557806342e94c90146101a75780634a79d50c146101e4578063590e1ae31461020f576100dd565b806302d05d3f146100e25780630681ca551461010d5780633cb5d10014610138575b600080fd5b3480156100ee57600080fd5b506100f7610344565b6040516101049190610f5d565b60405180910390f35b34801561011957600080fd5b50610122610368565b60405161012f9190610f91565b60405180910390f35b34801561014457600080fd5b5061015f600480360381019061015a9190610fdd565b61036e565b60405161016c9190610f5d565b60405180910390f35b34801561018157600080fd5b5061018a6103ad565b60405161019e98979695949392919061109a565b60405180910390f35b3480156101b357600080fd5b506101ce60048036038101906101c9919061114b565b610496565b6040516101db9190610f91565b60405180910390f35b3480156101f057600080fd5b506101f96104ae565b6040516102069190611178565b60405180910390f35b34801561021b57600080fd5b5061022461053c565b005b34801561023257600080fd5b5061023b61070d565b6040516102489190610f91565b60405180910390f35b34801561025d57600080fd5b5061027860048036038101906102739190610fdd565b610713565b005b34801561028657600080fd5b506102a1600480360381019061029c9190610fdd565b610add565b005b3480156102af57600080fd5b506102b8610c47565b6040516102c59190610f91565b60405180910390f35b6102d6610c4d565b005b3480156102e457600080fd5b506102ed610e3e565b6040516102fa9190610f91565b60405180910390f35b34801561030f57600080fd5b5061032a60048036038101906103259190610fdd565b610e44565b60405161033b9594939291906111b5565b60405180910390f35b60008054906101000a900473ffffffffffffffffffffffffffffffffffffffff1681565b60045481565b6007818154811061037e57600080fd5b906000526020600020016000915054906101000a900473ffffffffffffffffffffffffffffffffffffffff1681565b6000606060008060008060008060008054906101000a900473ffffffffffffffffffffffffffffffffffffffff166001600254600354600454600780549050600554478680546103fc9061123e565b80601f01602080910402602001604051908101604052809291908181526020018280546104289061123e565b80156104755780601f1061044a57610100808354040283529160200191610475565b820191906000526020600020905b81548152906001019060200180831161045857829003601f168201915b50505050509650975097509750975097509750975097509091929394959697565b60086020528060005260406000206000915090505481565b600180546104bb9061123e565b80601f01602080910402602001604051908101604052809291908181526020018280546104e79061123e565b80156105345780601f1061050957610100808354040283529160200191610534565b820191906000526020600020905b81548152906001019060200180831161051757829003601f168201915b505050505081565b6000600860003373ffffffffffffffffffffffffffffffffffffffff1673ffffffffffffffffffffffffffffffffffffffff16815260200190815260200160002054116105be576040517f08c379a00000000000000000000000000000000000000000000000000000000081526004016105b5906112bb565b60405180910390fd5b60006064600554600860003373ffffffffffffffffffffffffffffffffffffffff1673ffffffffffffffffffffffffffffffffffffffff1681526020019081526020016000205461060f919061130a565b610619919061137b565b600860003373ffffffffffffffffffffffffffffffffffffffff1673ffffffffffffffffffffffffffffffffffffffff1681526020019081526020016000205461066391906113ac565b90506000600860003373ffffffffffffffffffffffffffffffffffffffff1673ffffffffffffffffffffffffffffffffffffffff1681526020019081526020016000208190555080600360008282546106bc91906113ac565b925050819055503373ffffffffffffffffffffffffffffffffffffffff166108fc829081150290604051600060405180830381858888f19350505050158015610709573d6000803e3d6000fd5b5050565b60025481565b60006006600083815260200190815260200160002090508060050160009054906101000a900460ff1661077b576040517f08c379a00000000000000000000000000000000000000000000000000000000081526004016107729061142c565b60405180910390fd5b60008054906101000a900473ffffffffffffffffffffffffffffffffffffffff1673ffffffffffffffffffffffffffffffffffffffff163373ffffffffffffffffffffffffffffffffffffffff1603610809576040517f08c379a000000000000000000000000000000000000000000000000000000000815260040161080090611498565b60405180910390fd5b6000600860003373ffffffffffffffffffffffffffffffffffffffff1673ffffffffffffffffffffffffffffffffffffffff168152602001908152602001600020541161088b576040517f08c379a000000000000000000000000000000000000000000000000000000000815260040161088290611504565b60405180910390fd5b8060040160003373ffffffffffffffffffffffffffffffffffffffff1673ffffffffffffffffffffffffffffffffffffffff16815260200190815260200160002060009054906101000a900460ff161561091a576040517f08c379a000000000000000000000000000000000000000000000000000000000815260040161091190611570565b60405180910390fd5b8060020160009054906101000a900460ff161561096c576040517f08c379a0000000000000000000000000000000000000000000000000000000008152600401610963906115dc565b60405180910390fd5b60018160040160003373ffffffffffffffffffffffffffffffffffffffff1673ffffffffffffffffffffffffffffffffffffffff16815260200190815260200160002060006101000a81548160ff0219169083151502179055508060030160008154809291906109db906115fc565b919050555060026007805490506109f2919061137b565b81600301541115610ad95760018160020160006101000a81548160ff02191690831515021790555060008054906101000a900473ffffffffffffffffffffffffffffffffffffffff1673ffffffffffffffffffffffffffffffffffffffff166108fc60646003548460010154610a68919061130a565b610a72919061137b565b9081150290604051600060405180830381858888f19350505050158015610a9d573d6000803e3d6000fd5b50806001015460056000828254610ab49190611644565b9250508190555060008160050160006101000a81548160ff0219169083151502179055505b5050565b60008054906101000a900473ffffffffffffffffffffffffffffffffffffffff1673ffffffffffffffffffffffffffffffffffffffff163373ffffffffffffffffffffffffffffffffffffffff1614610b6b576040517f08c379a0000000000000000000000000000000000000000000000000000000008152600401610b62906116c4565b60405180910390fd5b60006006600083815260200190815260200160002090508060050160009054906101000a900460ff1615610bd4576040517f08c379a0000000000000000000000000000000000000000000000000000000008152600401610bcb90611730565b60405180910390fd5b8060020160009054906101000a900460ff1615610c26576040517f08c379a0000000000000000000000000000000000000000000000000000000008152600401610c1d906115dc565b60405180910390fd5b60018160050160006101000a81548160ff0219169083151502179055505050565b60035481565b60003411610c90576040517f08c379a0000000000000000000000000000000000000000000000000000000008152600401610c879061179c565b60405180910390fd5b6000600860003373ffffffffffffffffffffffffffffffffffffffff1673ffffffffffffffffffffffffffffffffffffffff1681526020019081526020016000205403610d3b576007339080600181540180825580915050600190039060005260206000200160009091909190916101000a81548173ffffffffffffffffffffffffffffffffffffffff021916908373ffffffffffffffffffffffffffffffffffffffff1602179055505b34600860003373ffffffffffffffffffffffffffffffffffffffff1673ffffffffffffffffffffffffffffffffffffffff1681526020019081526020016000206000828254610d8a9190611644565b925050819055503460036000828254610da39190611644565b9250508190555060006005541115610e3c576000606460055434610dc7919061130a565b610dd1919061137b565b905060008054906101000a900473ffffffffffffffffffffffffffffffffffffffff1673ffffffffffffffffffffffffffffffffffffffff166108fc829081150290604051600060405180830381858888f19350505050158015610e39573d6000803e3d6000fd5b50505b565b60055481565b6006602052806000526040600020600091509050806000018054610e679061123e565b80601f0160208091040260200160405190810160405280929190818152602001828054610e939061123e565b8015610ee05780601f10610eb557610100808354040283529160200191610ee0565b820191906000526020600020905b815481529060010190602001808311610ec357829003601f168201915b5050505050908060010154908060020160009054906101000a900460ff16908060030154908060050160009054906101000a900460ff16905085565b600073ffffffffffffffffffffffffffffffffffffffff82169050919050565b6000610f4782610f1c565b9050919050565b610f5781610f3c565b82525050565b6000602082019050610f726000830184610f4e565b92915050565b6000819050919050565b610f8b81610f78565b82525050565b6000602082019050610fa66000830184610f82565b92915050565b600080fd5b610fba81610f78565b8114610fc557600080fd5b50565b600081359050610fd781610fb1565b92915050565b600060208284031215610ff357610ff2610fac565b5b600061100184828501610fc8565b91505092915050565b600081519050919050565b600082825260208201905092915050565b60005b83811015611044578082015181840152602081019050611029565b60008484015250505050565b6000601f19601f8301169050919050565b600061106c8261100a565b6110768185611015565b9350611086818560208601611026565b61108f81611050565b840191505092915050565b6000610100820190506110b0600083018b610f4e565b81810360208301526110c2818a611061565b90506110d16040830189610f82565b6110de6060830188610f82565b6110eb6080830187610f82565b6110f860a0830186610f82565b61110560c0830185610f82565b61111260e0830184610f82565b9998505050505050505050565b61112881610f3c565b811461113357600080fd5b50565b6000813590506111458161111f565b92915050565b60006020828403121561116157611160610fac565b5b600061116f84828501611136565b91505092915050565b600060208201905081810360008301526111928184611061565b905092915050565b60008115159050919050565b6111af8161119a565b82525050565b600060a08201905081810360008301526111cf8188611061565b90506111de6020830187610f82565b6111eb60408301866111a6565b6111f86060830185610f82565b61120560808301846111a6565b9695505050505050565b7f4e487b7100000000000000000000000000000000000000000000000000000000600052602260045260246000fd5b6000600282049050600182168061125657607f821691505b6020821081036112695761126861120f565b5b50919050565b7f4e6f7468696e6720746f20726566756e64000000000000000000000000000000600082015250565b60006112a5601183611015565b91506112b08261126f565b602082019050919050565b600060208201905081810360008301526112d481611298565b9050919050565b7f4e487b7100000000000000000000000000000000000000000000000000000000600052601160045260246000fd5b600061131582610f78565b915061132083610f78565b925082820261132e81610f78565b91508282048414831517611345576113446112db565b5b5092915050565b7f4e487b7100000000000000000000000000000000000000000000000000000000600052601260045260246000fd5b600061138682610f78565b915061139183610f78565b9250826113a1576113a061134c565b5b828204905092915050565b60006113b782610f78565b91506113c283610f78565b92508282039050818111156113da576113d96112db565b5b92915050565b7f4d696c6573746f6e65206e6f7420766f7461626c652079657400000000000000600082015250565b6000611416601983611015565b9150611421826113e0565b602082019050919050565b6000602082019050818103600083015261144581611409565b9050919050565b7f43726561746f722063616e6e6f7420766f746500000000000000000000000000600082015250565b6000611482601383611015565b915061148d8261144c565b602082019050919050565b600060208201905081810360008301526114b181611475565b9050919050565b7f4e6f74206120636f6e7472696275746f72000000000000000000000000000000600082015250565b60006114ee601183611015565b91506114f9826114b8565b602082019050919050565b6000602082019050818103600083015261151d816114e1565b9050919050565b7f416c726561647920766f74656400000000000000000000000000000000000000600082015250565b600061155a600d83611015565b915061156582611524565b602082019050919050565b600060208201905081810360008301526115898161154d565b9050919050565b7f4d696c6573746f6e6520616c726561647920617070726f766564000000000000600082015250565b60006115c6601a83611015565b91506115d182611590565b602082019050919050565b600060208201905081810360008301526115f5816115b9565b9050919050565b600061160782610f78565b91507fffffffffffffffffffffffffffffffffffffffffffffffffffffffffffffffff8203611639576116386112db565b5b600182019050919050565b600061164f82610f78565b915061165a83610f78565b9250828201905080821115611672576116716112db565b5b92915050565b7f4f6e6c792063726561746f722063616e2063616c6c0000000000000000000000600082015250565b60006116ae601583611015565b91506116b982611678565b602082019050919050565b600060208201905081810360008301526116dd816116a1565b9050919050565b7f4d696c6573746f6e6520616c7265616479206163746976650000000000000000600082015250565b600061171a601883611015565b9150611725826116e4565b602082019050919050565b600060208201905081810360008301526117498161170d565b9050919050565b7f4d7573742073656e6420455448203e2030000000000000000000000000000000600082015250565b6000611786601183611015565b915061179182611750565b602082019050919050565b600060208201905081810360008301526117b581611779565b905091905056fea2646970667358221220300ab0939489349cb299c7675553030487336c6b458335cc990f0052f1103e5e64736f6c634300081c0033",
  "linkReferences": {},
  "deployedLinkReferences": {}
}